:100000000C946B000C94E1010C9488000C94880013
:100010000C9488000C9488000C9488000C94880040
:100020000C9488000C9488000C9488000C94880030
:100030000C9488000C9488000C9488000C94880020
:100040000C9488000C9488000C9488000C94880010
:100050000C9488000C9488000C9488000C94880000
:100060000C9488000C94880009021900010100A07A
:1000700025090400000100000000070581030800B5
:100080000A12011001FF000008030430C609010133
:1000900002000124034C0043004400320055005389
:1000A000004200200049006E007400650072006686
:1000B000006100630065001A03540069006C006C65
:1000C0000020004800610072006200610075006D50
:1000D00000040309040011241FBECFEFD8E0DEBFE7
:1000E000CDBF11E0A0E0B1E0ECE5FBE002C005907F
:1000F0000D92A032B107D9F721E0A0E2B1E001C032
:100100001D92AC35B207E1F70E943C050C94AC059A
:100110000C940000CF93C62F2091310124FF19C009
:100120003091320128E82327209332012C2FFC0143
:10013000A3E3B1E081918D9321501216DCF36C2F73
:1001400083E391E00E94DD01CC5FC0933101CF9148
:1001500008952AE520933101E9CFCF93DF93809171
:100160004201835087FD07C090913E019D3209F402
:1001700049C0109242018091010184FF36C0609114
:1001800000016F3F91F1693008F46BC068506093D3
:1001900000019091260188E8892780932601CCE010
:1001A00068E020914001309141018091200186FF5B
:1001B0006CC0A7E2B1E0F901862F94919D9331962E
:1001C0008150D9F78FEF860F90E00196280F391FE5
:1001D000309341012093400187E291E00E94DD01CC
:1001E000CC3009F04EC0C093010194E186B1837018
:1001F00031F49150D9F71092430110923D01DF91F3
:10020000CF910895883009F0B4CF80913F01CCE0C0
:10021000D0E0C81BD109CA5BDE4F83EC8093260176
:100220008AE5809301011092200188818076B1F5E2
:100230009A8110922F018981811137C0109230016B
:100240002FE231E082E030934101209340019F8111
:10025000911104C09E81981708F4892F80930001A2
:1002600088CF109200019091260188E88927809319
:100270002601611117C060E087E291E00E94DD0174
:10028000C4E08FEF80930001AECFD901E7E2F1E047
:10029000862F9D9191938150E1F794CFCE010E94DA
:1002A0007B03D5CFC4E0C60F7CCF853079F0863094
:1002B000B9F0883089F0893049F18A3009F443C0B7
:1002C0008B30D1F12FE231E080E0BDCF909343013C
:1002D0002FE231E080E0B7CF25E431E081E0B3CF19
:1002E0008B81813009F18230B9F0833029F080E0D0
:1002F00090E490932001ABCF911129C081ED90E063
:10030000909341018093400184E0F2CF90934501A6
:100310002FE231E080E097CF88E690E090934101B2
:100320008093400189E1E4CF81E890E0909341011E
:100330008093400182E1DCCF8BE4809332012FE295
:1003400031E080E080CF2FE231E081E07CCF91305E
:1003500051F0923061F683E990E0909341018093EF
:10036000400184E2C5CF87EB90E0909341018093F8
:1003700040018AE1BDCFE9E6F0E0808183608083BF
:10038000E89AE1E3F1E08BE481838AE580830895D4
:10039000A82FB92F80E090E041E050EA609530E06E
:1003A00009C02D9182279795879510F0842795276E
:1003B000305EC8F36F5FA8F30895EADF8D939D93D5
:1003C0000895CF93CFB7CF93C395309BE9F7309B78
:1003D00009C0309B07C0309B05C0309B03C0309BD9
:1003E00001C0A3C0DF93C0913F01DD27CA5BDE4F90
:1003F000309B02C0DF91EBCF2F930F931F9306B179
:100400002FEF00FB20F94F933F9316B14FEF0127D9
:1004100000FB21F93BE031C04E7F012F16B1216076
:1004200028C0102F4D7F2260000006B129C04B7FED
:100430002460012F000016B12BC016B1477F286041
:100440002AC04F7E06B120612CC04F7D16B12062BC
:100450002FC04F7B06B1206432C0422706B14993BA
:100460004FEF0000102710FB20F916B11370C9F1EF
:10047000297F91F2012700FB21F906B1237F89F240
:10048000315058F1102710FB22F916B1277E79F26E
:10049000012700FB23F92F7C81F206B1102710FB06
:1004A00024F92F7971F200C016B1012700FB25F95C
:1004B0002F7359F200C006B1102710FB26F9223025
:1004C00040F200C016B1012700FB27F9243028F6BE
:1004D0004F77206816B10000F9CF11E01CBB002750
:1004E00019C03B503195C31BD04011E01CBB0881A3
:1004F000033CF9F00B34E9F020913D011981110F13
:100500001213EDCF4A81441F093641F10D3211F02B
:10051000013E29F7009344013F914F911F910F91A4
:100520002F91DF91CCB3C0FD4FCFCF91CFBFCF91F3
:10053000189520914401222379F31091420111234F
:1005400069F534306AF13093420120933E011091F5
:100550003F013BE0311B30933F0122C0009142013B
:100560000130E4F40AE54F7049F43091010134FDA3
:1005700019C000930101C6E2D1E018C030913101E9
:1005800034FD10C000933101C2E3D1E00FC02795C4
:10059000A8F45150A9F4220F0000F9CF4AE503C096
:1005A00042ED01C0432FC4E1D0E032E017B1136047
:1005B000409A17B908B120E413E05F93012756E091
:1005C00008B9279520F4515021F4220FF9CF0127C3
:1005D00056E000003B5A08B9D0F2279528F4515054
:1005E00029F4220F0000F9CF012756E0279508B91A
:1005F00020F4515021F4220FF9CF012756E0299120
:10060000332308B921F60C7F10914301110FC65115
:10061000D04008B911F010933D0111E01CBB0160FE
:1006200017B11C7F402F4C7F5F9100C000C008B9FC
:1006300017B948B971CF82E090E00E9496058234E4
:1006400079F062E482E090E00E949E056FEF81E025
:1006500090E00E949E056FEF80E090E00E949E0572
:1006600084B1866084B981EE8093800089E08093B4
:10067000810080916F00887D80936F0081E090E021
:100680000E94960590E0909389008093880080E016
:1006900090E00E94960590E090938B0080938A00F2
:1006A0000895CF93C82F81E090E00E9496058C17A3
:1006B00029F06C2F81E090E00E949E058C2F90E045
:1006C0009093890080938800CF910895CF93C82F8D
:1006D00080E090E00E9496058C1729F06C2F80E056
:1006E00090E00E949E058C2F90E090938B00809369
:1006F0008A00CF910895FF920F931F93CF93DF93BA
:10070000EC0182E291E09093410180934001998154
:10071000292F2370392F369536953695337092955B
:1007200096959770923009F449C000F59923C9F164
:100730009130A9F4F0902101F32289F08E010E5F2F
:100740001F4F30E02D5F3F4FC20FD31FF801619163
:100750008F018F2D0E948C04C017D107B9F780E05C
:10076000DF91CF911F910F91FF900895933081F009
:100770009430A9F7313009F444C0D8F1323079F718
:1007800080912101809322011092230182E0E8CF21
:10079000332351F1313019F78A810E94660380E0DA
:1007A000DFCF8A81809322018B818093230182E0B5
:1007B000DF91CF911F910F91FF900895F09021014B
:1007C000F32269F28E010E5F1F4F30E02D5F3F4F25
:1007D000C20FD31FF80161918F018F2D0E949904E0
:1007E0000C171D07B9F7BBCF8A810E94510380E027
:1007F000B7CF81E08093220189E08093230182E0DA
:10080000AFCF86B182958695877038273170189959
:1008100008C082E0382B309322011092230182E03D
:100820009FCF80E0F7CF282F217080FD439A982F2B
:10083000927081FD449A00C021114398911144980F
:1008400008951F93CF93DF93182FD62F41111DC00A
:100850005B9842988AB1806F8AB9CBB1CF708D2FE7
:10086000807F8C2B8BB9812F0E94130480E1D89F4D
:10087000B00111246C2B6BB9812F0E941304C06F3F
:10088000CBB9DF91CF911F9108955B9AE2CF5B982E
:10089000429A9AB19F709AB99BB1906F9BB9382FC9
:1008A000317080FD439A282F227081FD449A00C048
:1008B00089B1982F907F311143982111449800C03D
:1008C0003111439A2111449A00C089B182958F70E9
:1008D000892B31114398211144980895CF93DF93C8
:1008E000D82FD170C82FC27007C0CC2391F082E0FE
:1008F0000E94470487FF0DC0DD23B9F381E00E9409
:10090000470487FFF2CFCC23B9F382E00E9447046B
:10091000F3CFDF91CF910895CF93DF93C82FD62FD8
:100920000E946E0440E06D2F8C2FDF91CF910C94CC
:100930002104CF93DF93C82FD62F0E946E0441E08D
:100940006D2F8C2FDF91CF910C942104CF93C82F62
:100950000E946E0440E061E08C2FCF910C94210442
:100960000F931F93CF93DF93FB01C081CC2389F0BA
:10097000D82F8B010F5F1F4F8D2F0E946E0441E017
:100980006C2F8D2F0E942104F801C1918F01C1119C
:10099000F3CFDF91CF911F910F9108950F931F9384
:1009A000CF93C82F8AB1806F8AB9539A3A9A3B9AEB
:1009B0003C9A80E89BEB0197F1F78BB18F708063D5
:1009C0008BB98C2F0E94130480E89AE30197F1F70A
:1009D0008C2F0E94130400EC10E0C8010197F1F77E
:1009E0008C2F0E941304C8010197F1F759988C2F9E
:1009F0000E941304C8010197F1F78C2F0E9447044D
:100A000087FD35C08C2F0E946E0440E068E28C2F79
:100A10000E942104C8010197F1F78C2F0E9447041E
:100A200087FD25C08C2F0E946E0440E068E08C2F6B
:100A30000E9421048C2F0E946E0440E061E08C2F04
:100A40000E9421048C2F0E946E0440E066E08C2FEF
:100A50000E9421048C2F0E946E0440E06CE08C2FD9
:100A60000E94210481E0CF911F910F91089580E0B1
:100A7000CF911F910F9108959EE088E10FB6F894F1
:100A8000A895809360000FBE9093600088EF8AB9AC
:100A90001BB818B88FEF87B980E49CE90197F1F78C
:100AA0008CEF87B90E94BB010E941B033D98459AB9
:100AB0002098289A81E00E94CE04882329F0809112
:100AC000210181608093210182E00E94CE0488236D
:100AD00089F08091210182608093210180FD0EC008
:100AE00081FD15C083708330E1F07894A8950E9451
:100AF000AD00FCCF8091210180FFF2CF62E071E078
:100B000081E00E94B0048091210181FFEBCF60E180
:100B100071E082E00E94B0048091210183708330F3
:100B200021F769E171E00E94B004DFCFF999FECFAF
:100B300092BD81BDF89A992780B50895262FF9991D
:100B4000FECF1FBA92BD81BD20BD0FB6F894FA9AB0
:0C0B5000F99A0FBE01960895F894FFCFAB
:100B5C00FF5A4C4344325553422056312E30390003
:100B6C00326E64206374726C0020626F74682100B2
:00000001FF
